:020000040800F2
:10000000F004002001010008D1180008891600083A
:10001000CD1800085D040008E91900080000000080
:10002000000000000000000000000000D9180008D7
:100030006104000800000000D5180008E11900085C
:100040001B0100081B0100081B0100081B01000820
:100050001B0100081B0100081B0100081B01000810
:100060001B0100081B0100081B0100081B01000800
:100070001B0100081B0100081B0100081B010008F0
:100080001B0100081B0100081B0100081B010008E0
:100090001B0100081B0100081B0100081B010008D0
:1000A0001B0100081B0100081B0100081B010008C0
:1000B0001B0100081B0100081B0100081B010008B0
:1000C0001B0100081B0100081B0100081B010008A0
:1000D0001B0100081B0100081B0100081B01000890
:1000E0001B0100081B0100081B010008DFF80CD0F1
:1000F00000F092F900480047ED190008F0040020D4
:100100000648804706480047FEE7FEE7FEE7FEE7B1
:10011000FEE7FEE7FEE7FEE7FEE7FEE7E51900087B
:10012000ED0000082DE9FE4F81EA030404F00044CD
:1001300021F0004100944FF0000B23F0004350EAFF
:1001400001045ED052EA03045BD0C3F30A54C1F346
:100150000A552C44A4F2F3340194A0FB0254C1F3D9
:10016000130141F48011C3F3130343F4801301FB23
:10017000024400FB034E840A970A44EA815447EA8A
:100180008357A4FB076802958D0A05FB07854FEA94
:10019000932C04FB0C542705029D4FEA065847EAAE
:1001A0001637B5EB08056EEB070C870E920E47EA83
:1001B000811742EA8312A7FB0201B6EB0B0164EB45
:1001C00000042B0D43EA0C335E1844EB1C50DA4656
:1001D0005146E7FB0201C5F313044FEA0B3343EA30
:1001E00014534FEA0432019C43EA0603A4F10C04C1
:1001F0000294009CCDE900B400F0C0F803B0BDE863
:10020000F08F00200146F9E72DE9F04D81EA030463
:1002100004F0004B21F0004514464FF0000A23F093
:10022000004150EA050220D054EA01021DD0C5F376
:100230000A570246C5F31303C1F31300C1F30A566C
:1002400040F4801543F48013A7EB0608101BD64634
:1002500008F2FD3873EB050002D308F1010801E054
:1002600092185B41B8F1000F03DA00200146BDE8A7
:10027000F08D00204FF48011064684460EE0171BD7
:1002800073EB050705D3121B63EB050306434CEA2A
:10029000010C49084FEA300092185B4150EA01070F
:1002A000EDD152EA030012D082EA040083EA05018C
:1002B000084305D0101BAB4106D20122002306E003
:1002C00000224FF0004302E06FF0010253101AEBDE
:1002D00006004CEB085110EB0A0041EB0B01BDE8A6
:1002E000F04D00F03CB80EB540F2334102910021D0
:1002F000CDE900110A460B4600F040F803B000BDFE
:1003000070B5C1F30A5201F000450024C1F3130196
:1003100040F2FF3341F480119A4201DA002070BDAF
:1003200040F233439A42A2F2334203DC524200F0DD
:1003300006F800E090402C43F1D0404270BD202AE6
:1003400004DB203A21FA02F00021704721FA02F37F
:10035000D040C2F12002914008431946704710B5C1
:10036000141E73F1000408DA401C41F100019218D8
:100370005B411A4301D120F0010010BD2DE9F04D81
:1003800092469B4611B1B1FA81F202E0B0FA80F2D6
:100390002032904600F052F804460F4640EA0A0028
:1003A00041EA0B0153465A46084313D0114653EA1B
:1003B000010019D0C8F140025046FFF7C0FF0546C2
:1003C0000E4650465946424600F038F8084305D0DC
:1003D000012004E020463946BDE8F08D00200543A9
:1003E00046EAE0762C4337430A986305E40AA0EB1B
:1003F00008000022FD0A44EA47540A3002D50020D2
:100400000146E9E7010510196941DDE908450019D0
:100410006941BDE8F04DA2E7064C074D06E0E068F3
:1004200040F0010394E8070098471034AC42F6D33B
:10043000FFF760FEF41A0008141B0008202A04DBF2
:10044000203A00FA02F1002070479140C2F12003E7
:1004500020FA03F31943904070470000FEE70000C4
:1004600070470000EFF3108072B600BFFEE7000097
:10047000B0B5044600F024F9054640F20000C2F28F
:1004800000000078611C18BF044400BF00F018F998
:10049000401BA042FAD3B0BD2DE9F04F82B00E68E8
:1004A000002E00F0038140F20C4C41F200424FF666
:1004B000FF7EC4F2010CC4F20102042700240123D0
:1004C000C1F2100E4FF0000A4FF00009904208BF31
:1004D0000327009745E000BF012704F00C030F221B
:1004E0009A402BEA020207FA03F34FEA9A051A43ED
:1004F00046F82520D1F804B040F20045C4F20105C9
:100500005FEACB322A6854BF22EA080242EA0802B4
:100510002A606A685FEA8B3354BF22EA080242EA23
:1005200008026A605FEACB23AA6854BF22EA080285
:1005300042EA08025FEA8B23AA60DCF800204FF051
:10054000010354BF22EA080242EA0802CCF8002064
:100550000E680AF1010A36FA0AF204F1040400F006
:10056000A58003FA0AF816EA080FF1D04E6876451E
:1005700012DC122E56D8DFE806F0350B45495555EA
:1005800055555555555555555555554D510000BF67
:10059000D1F80C9046E000BF4FF6FF72C1F2210285
:1005A00096420FDC0022C1F2110296421AD00022BC
:1005B000C1F21202964215D00022C1F221029642E7
:1005C00010D02FE00022C1F2220296420AD000226F
:1005D000C1F23102964205D00022C1F232029642A7
:1005E00020D100BF8A684AB1012A14BFC0F8148024
:1005F000C0F810804FF0080914E000BF4FF0040964
:1006000010E000BFCA6802F108090BE04FF00009D2
:1006100008E000BFCA6802F1040903E0CA6802F1F9
:100620000C0900BF22460646BAF1080F24BF203A43
:10063000043637680F25954027EA050509FA02F2C6
:100640002A433260CA79D2067FF582AF41F218039D
:10065000C4F202031A6842F001021A601A6802F03A
:1006600001020192019A40F20042C4F20102A2F595
:100670007E762AF0030256F802B040F60002C4F279
:100680000102904210D040F60042C4F201029042B2
:100690003FF422AF41F20002C4F20102009F9042F7
:1006A00008BF022719E700BF002716E702B0BDE820
:1006B000F08F0000002A08BF0904016170470000A4
:1006C00040F2E800C2F200000068704740F200000B
:1006D00040F2E801C2F20000C2F2000100780A68AC
:1006E000104408607047000080B542F20000C4F278
:1006F0000200016841F010010160032000F07AF867
:100700000F2000F005F800F027F8002080BD000061
:1007100070B540F20006C2F2000640F208013278DD
:10072000C2F200014FF47A730968B3FBF2F2044697
:10073000B1FBF2F1084600F04FFB0F2C4FF0010522
:1007400008D838B94FF0FF3021460022002500F0CC
:1007500025F87460284670BD82B041F21800C4F2DA
:1007600002000168022241F001010160016801F00C
:10077000010101910199416841F080514160406857
:1007800000F08050009000980420C4F2010001683D
:1007900062F31A61016002B07047000010B54EF6B6
:1007A0000C5CCEF2000CDCF80030C3F3022E8EF0AD
:1007B0000704042C28BF0424BEF103034FF0FF3EBE
:1007C0000EFA04F438BF0023A14399400EFA03F354
:1007D0009A43114300F00F0200F160430901043A0B
:1007E00003F564436244002848BF02F10C0319700A
:1007F00010BD00004EF60C51CEF200010A684FF613
:10080000FF031A4060F30A2242F0806040F0FD705E
:10081000086070472DE9F04381B0002800F0858022
:1008200042F20008C4F202080446D8F800000D465F
:1008300000F0070088420CD2D8F8000020F0070032
:100840002843C8F80000D8F8000000F00700A842CC
:100850006BD1206841F204098107C4F2020917D55F
:10086000410705D5D9F8001041F4E061C9F800103E
:10087000010705D5D9F8001041F46051C9F80010FE
:10088000D9F80010A26821F0F0011143C9F8001056
:10089000C00741D1D8F8000000F00700A8420CD9E9
:1008A000D8F8000020F007002843C8F80000D8F866
:1008B000000000F00700A84237D12068410707D5A3
:1008C000D9F80010E26821F4E0611143C9F8001082
:1008D000000708D5D9F80000216920F4605040EAEB
:1008E000C100C9F80000D9F8002002F00C00082867
:1008F00041F20020C0F27A0050D141F6E223C2F367
:100900008341C0F60003595CD2033BD440F600108B
:10091000C0F23D00484341E0606802280AD0012847
:100920002AD159F8041C890308D4012001B0BDE87C
:10093000F08300BF59F8041C8901F6D5D9F80010DE
:1009400021F003010843C9F80000FFF7B9FE06468D
:1009500041F28837D9F80000616800F00C00B0EB74
:10096000810F97D0FFF7ACFE801BB842F2D903206D
:1009700001B0BDE8F08300BF59F8041C8907D4D545
:10098000DCE700BFD9F8002041F6C823C2F340429B
:10099000C0F600039A5C4843B0FBF2F0D9F80010AF
:1009A00041F6CA22C1F30311C0F60002515C40F2C5
:1009B000080220FA01F140F20400C2F200000068CF
:1009C000C2F200021160FFF7A3FE002001B0BDE8F3
:1009D000F083000040F2080041F20401C2F200007E
:1009E000C4F202010068096841F6DA22C1F302216B
:1009F000C0F60002515CC8407047000040F2080099
:100A000041F20401C2F20000C4F202010068096868
:100A100041F6DA22C1F3C221C0F60002515CC8409F
:100A2000704700002DE9F04182B0002868D00446EC
:100A3000007841F20006C007C4F2020625D07068B3
:100A400000F00C0004281BD0706800F00C0008288F
:100A500002D17068C00313D46068002800F0688178
:100A6000B0F5A02F00F07C81B0F5803F00F07C81D4
:100A7000306820F480303060306820F4802076E1E7
:100A80003068800301D56068D0B32078800718D51E
:100A9000706810F00C0F07D0706800F00C00082888
:100AA0006ED17068C0036BD43068800702D52069AE
:100AB000012825D13068616920F0F80040EAC100C2
:100AC0003060207800071FD42078400732D4E569D1
:100AD00095B1706800F00C00082840F08F80012D5F
:100AE0000ED07068216A00F480328A4208D1616AAF
:100AF00000F47010884203D1002002B0BDE8F081FC
:100B0000012002B0BDE8F081A069002862D0002079
:100B1000C4F242200121C0F88014FFF7D1FD054640
:100B2000706A800700F18C80FFF7CAFD401B022825
:100B3000F6D92AE1F06910F0805808D1F06940F048
:100B40008050F061F06900F080500090009847F20A
:100B50000007C4F200073868C00529D4386840F49B
:100B600080703860FFF7ACFD054600BF3868C005EF
:100B70001ED4FFF7A5FD401B6428F7D905E100BF8F
:100B80002069002840F20000C4F2422000F0828078
:100B900001210160FFF794FD054600BF3068800722
:100BA0003FF588AFFFF78CFD401B0228F6D9ECE03B
:100BB000E068002800F08080052800F09780012878
:100BC00000F09880306A20F001003062306A20F036
:100BD000040092E00020C4F242200021C0F88014FA
:100BE000FFF76EFD054600BF706A80077FF56CAFAA
:100BF000FFF766FD401B0228F6D9C6E00027C4F2C5
:100C0000422700203866FFF75BFD022D05460BD119
:100C10003068800140F1BE80FFF752FD401B022882
:100C20004FF00300F4D968E7306880017FF564AFC6
:100C3000FFF746FD401B02284FF00300F4D95CE7A4
:100C400040F20800C2F20000006844F6D351C1F23D
:100C50006201A0FB0101480A019000BF00BF01989A
:100C6000411E002801913FF42FAF00BF0198411EA3
:100C7000002801913FF428AF00BF0198411E0028D1
:100C800001913FF421AF00BF0198411E002801915E
:100C9000E4D119E700210160FFF712FD054600BF0E
:100CA000306880077FF50DAFFFF70AFD401B022873
:100CB0004FF00300F4D920E7306A20F001003062E1
:100CC000306A20F004003062FFF7FAFC054641F27A
:100CD000883700BF306A800720D5FFF7F1FC401B42
:100CE000B8424FF00300F5D907E700BF306A40F083
:100CF00004003062306A40F001003062FFF7E0FC2F
:100D0000054641F2883700BF306A800706D4FFF7F6
:100D1000D7FC401BB842F7D937E000BFB8F1000F4D
:100D20007FF4D5AEF06920F08050F061CFE600BFCF
:100D3000306820F480303060306820F480203060EB
:100D4000FFF7BEFC054600BF306880037FF59DAE0F
:100D5000FFF7B6FC401B64284FF00300F4D9CCE643
:100D6000306840F480203060306840F4803030607B
:100D7000FFF7A6FC054600BF306880033FF585AE4F
:100D8000FFF79EFC401B6428F6D9032002B0BDE8A3
:100D9000F08100BF206AB0F5803F05D17168A2687C
:100DA00021F40031114371607168626A21F4741199
:100DB00011430843706001203866FFF781FC044648
:100DC000306880013FF598AEFFF77AFC001B0228DF
:100DD0004FF00300F4D990E6411E0020B0EB116FF4
:100DE0001CBF012070474EF21002CEF2000251608B
:100DF0004EF62351CEF20001F0230B7007219060D4
:100E00001160704710B590F83C20012A4FF00202A3
:100E100033D080F83D200268D2F804E0D2F808C050
:100E20000C682EF07003234340F2FF74C4F20004F8
:100E3000A24253600ADCB2F1804F13D040F200436B
:100E4000C4F200039A420DD011E000BF42F6004305
:100E5000C4F201039A4205D040F60003C4F2000335
:100E60009A4204D149682CF0800319439160012112
:100E7000002280F83D1080F83C20104610BD000094
:100E8000002804BF0120704710B5044690F83D00CB
:100E900028B9002084F83C00204600F067F80220C2
:100EA00084F83D00206840F2FF730268C4F200033A
:100EB00042F6004C9842C4F2010C15DCB0F1804FB0
:100EC0001AD040F20041C4F20001884214D0984286
:100ED00018DCB0F1804F1DD040F20041C4F2000197
:100EE000884217D01AE000BF604505D040F60001E7
:100EF000C4F200018842EAD1A16822F070020A43DC
:100F00009842E6DD604505D040F60001C4F20001DC
:100F1000884203D1216922F440720A43A36922F076
:100F20008001D4F804E0E268194360450160C262C0
:100F3000C0F828E002D16169CCF83010012141618C
:100F4000002084F8461084F83E1084F83F1084F89E
:100F5000401084F8411084F8421084F8431084F85B
:100F6000441084F8451084F83D1010BD82B000682C
:100F7000B0F1804F14D042F60041C4F20101884222
:100F80001BD141F21800C4F20200016841F4006173
:100F90000160006800F400600190019802B07047A1
:100FA00041F21800C4F20200416841F001014160C1
:100FB000406800F001000090009802B07047000007
:100FC00080B590F83C20012A4FF0020200F0BF806B
:100FD00080F83D20D0F800C04FF67772DCF808307A
:100FE00023EA0202CCF808200B683F2B1CDD5F2BA4
:100FF00020DD602B50D0B3F5005F6DD0702B40F03A
:10100000A080D1E901E3C968DCF8082043EA0E03B7
:1010100022F47F4243EA01211143CCF80810DCF8A6
:10102000081041F077018AE01F2B29DC63B3102BF5
:101030002AD086E0402B63D0502B40F08280D1F83C
:1010400004E0C968DCF82030DCF8202022F001023E
:10105000CCF82020DCF8182022F0F00242EA01113E
:1010600023F00A0242EA0E02CCF81810CCF8202035
:10107000DCF8081041F0570121F020015FE000BFCB
:10108000202B01D0302B5CD1DCF8081021F070014E
:10109000194341F0070152E0D1F804E0C968DCF8D7
:1010A000203023F01003CCF82030DCF81830DCF8C6
:1010B000202023F4704322F0A00243EA013142EAE7
:1010C0000E12CCF81810CCF82020DCF8081041F0F3
:1010D000670121F0100132E0D1E901E3C968DCF8D1
:1010E000082043EA0E0322F47F4243EA0121114320
:1010F000CCF80810DCF8081041F480411FE000BF74
:10110000D1F804E0C968DCF82030DCF8202022F0B7
:101110000102CCF82020DCF8182022F0F00242EA8C
:10112000011123F00A0242EA0E02CCF81810CCF8A2
:101130002020DCF8081041F0470121F03001CCF804
:1011400008100121002280F83D1080F83C20104654
:1011500080BD00002DE9F04390F83C30012B04BF26
:101160000220BDE8F0834FEAB202032A00F2E980D0
:10117000DFE802F0023A78B4036842F600461A6AE1
:10118000C4F2010622F001021A621D6A1A465C6866
:1011900052F818CFB3428E68D1F800E025F002056E
:1011A00045EA06050CD1CE68D1E9057824F44074EF
:1011B00025F00C0526F004063C43354344EA0804B8
:1011C0002CF0730747EA0E075C609F614F6809695E
:1011D0005F631D629F6947F008079F619F6927F061
:1011E00004079F61AAE000BF036842F600461A6A3E
:1011F000C4F2010622F010021A621D6A1A46D3F8E0
:1012000004C052F8184FB3428E68D1F800E025F0C0
:10121000200545EA061510D1CE68D1E9058725F0ED
:10122000C0096FF0400505EA06152CF4406647EA50
:10123000080745EA090546EA870C24F4E64444EA2F
:101240000E27C3F804C09F614F6809699F631D6240
:101250009F6947F400679F619F6927F480679F61DA
:101260006BE000BF036842F600461A6AC4F201064A
:1012700022F480721A621D6A1A46D3F804C052F82A
:101280001CEFB3428E680C6825F4007545EA06250C
:1012900011D1CE68D1E9058725F44069360240F2C4
:1012A000FF4526EA05052CF4405647EA080745EABB
:1012B000090546EA071C2EF073072743C3F804C04C
:1012C000DF614F680969DF631D62DF6947F0080766
:1012D000DF61DF6927F00407DF612FE0036842F672
:1012E00000471A6AC4F2010722F480521A621A46B1
:1012F000D3F820C05D6852F81C4FD1F800E08E682A
:10130000BB4204D14F6925F4804545EA87152CF48A
:10131000005747EA063724F4E64646EA0E265D60A3
:10132000DE614E6809691E641F62DF6947F4006769
:10133000DF61DF6927F48067DF6109021368194301
:101340001160002180F83C100846BDE8F0830000E1
:10135000002804BF0120704710B5044690F83D00F6
:1013600028B9002084F83C00204600F067F80220ED
:1013700084F83D00206840F2FF730268C4F2000365
:1013800042F6004C9842C4F2010C15DCB0F1804FDB
:101390001AD040F20041C4F20001884214D09842B1
:1013A00018DCB0F1804F1DD040F20041C4F20001C2
:1013B000884217D01AE000BF604505D040F6000112
:1013C000C4F200018842EAD1A16822F070020A4307
:1013D0009842E6DD604505D040F60001C4F2000108
:1013E000884203D1216922F440720A43A36922F0A2
:1013F0008001D4F804E0E268194360450160C262EC
:10140000C0F828E002D16169CCF8301001214161B7
:10141000002084F8461084F83E1084F83F1084F8C9
:10142000401084F8411084F8421084F8431084F886
:10143000441084F8451084F83D1010BD704700003A
:1014400041B1082910D0042914BF00F1410200F174
:101450003F020BE090F83E20012A1CBF012070479C
:10146000022280F83E2013E000F140021278012AA7
:101470001CBF012070470222082907D0042914BF8D
:1014800080F8412080F83F2002E000BF80F8402033
:10149000006801F01F010122036A8A4023EA020169
:1014A0000162036A42F64441C4F201011A43A1F108
:1014B0004403984202620FD040F2FF71C4F200016F
:1014C000884213DCB0F1804F1CD040F20041C4F2DE
:1014D0000001884216D01CE00A6842F400420A600B
:1014E00040F2FF71C4F200018842EBDD42F6004198
:1014F000C4F20101884205D040F60001C4F20001A7
:10150000884206D1816801F00701062904BF002046
:101510007047016841F00101016000207047000040
:10152000002804BF0120704710B5044690F83D0024
:1015300028B9002084F83C00204600F061F82420FF
:1015400084F83D002068D4E90212C36823F40053F4
:10155000C360036923F440531A430261D4E90423AE
:101560001143C268194341F20C639A431143C160AD
:101570004169A26921F44071114343F60002C4F2AB
:1015800001029042416103D0FFF724FA02E000BF5C
:10159000FFF734FA6268192148439100B0FBF1F07B
:1015A00048F21F51C5F2EB11A0FB01235A094FF677
:1015B0009C73C0F6FF7302FB0300322303EB0010A1
:1015C000A0FB0101F02303EA5113206803EB021290
:1015D000C1F3431111448160016921F4904101611B
:1015E000416921F02A014161C16841F40051C160A3
:1015F00000202021206484F83D1084F83E1010BDA6
:1016000070B586B040F60044C4F20104006804F5E9
:10161000305100268842049602D006B070BD00BF4B
:1016200041F21800C4F20200016802AD41F48041A9
:101630000160016801F4804101910199016841F064
:10164000080101600068294600F008000190019837
:101650004020029002200390032005902046FEF7D0
:101660001BFF8020CDE90206204629460496FEF79E
:1016700013FF0420C4F20100016841F0E06141F071
:101680000401016006B070BDFEE7000070B584B0D3
:1016900041F21800C4F20200016840F6004441F033
:1016A000100101600168C4F2010401F01001009111
:1016B00000990168002241F02001016001684FF4A7
:1016C000704501F02001009100990168002641F069
:1016D00004010160016801F00401009100990168B2
:1016E00041F00801016000684FF4704100F008000B
:1016F000009000982046FEF7DDFF0120CDE90106AD
:1017000002200390694620460095FEF7C5FE04B00E
:1017100070BD000080B586B040F2140042F6004271
:101720000021C2F20000C4F2010247234FF6FF7C01
:101730000591CDE90311CDE90011C0E90023C0E90D
:10174000021CC0E904118161FFF79AFB002818BF51
:10175000FEF788FE4FF48050029040F21400C2F26F
:10176000000002A9FFF72CFC002818BFFEF77AFE44
:1017700040F21400C2F200006946FFF743FB002864
:1017800018BFFEF76FFE06B080BD000010B594B024
:1017900040F25C000021C2F200004FF0804247237B
:1017A00044F61F640E91CDE90C110991CDE90711A2
:1017B000CDE90511CDE90311CDE90111C0E90023FF
:1017C000C0E9021401618161FFF75AFB002818BFCC
:1017D000FEF748FE4FF480500B9040F25C00C2F2DE
:1017E00000000BA9FFF7ECFB002818BFFEF73AFE3C
:1017F00040F25C00C2F20000FFF7AAFD002818BF0B
:10180000FEF730FE40F25C000024C2F2000008A99E
:10181000CDE90844FFF7F6FA002818BFFEF722FECC
:10182000602001904FF4FA70CDE90204059440F273
:101830005C04C2F2000401A920460022FFF78AFCE2
:10184000002818BFFEF70EFE20680021B0F1804F7F
:10185000129101D014B010BD41F21800C4F2020080
:10186000016841F004010160006810A900F0040063
:101870000F900F980120109002201190139040F6C5
:101880000000C4F20100FEF707FE14B010BD000016
:1018900080B540F2A40043F60001C2F20000C4F299
:1018A000010100234FF00C0C4FF4165280E80E009B
:1018B000C0E90333C0E905C3C361FFF731FE002867
:1018C00008BF80BDBDE88040FEF7CCBDFEE700004C
:1018D000FEE7000070470000704700002DE9F0436C
:1018E00081B040F21009C2F20009044699F80000E4
:1018F000012C03D1E0B3013889F80000C0B20728F9
:1019000004D94CB301B0BDE8F08300BF1BA10A5C51
:101910001CA10D5C1DA140F600470E5C1DA1C4F288
:10192000010711F8008038464FF48051FEF7C2FEDF
:1019300038464FF400512A46FEF7BCFE38464FF4B5
:1019400080413246FEF7B6FE38464FF4004142462B
:10195000FEF7B0FE002CD5D199F80000411CC8B2AA
:10196000083818BF084689F8000001B0BDE8F083C8
:10197000082089F8000001B0BDE8F08301010000F3
:101980000000000100010101000000000000000152
:10199000010100000000000000010101B0B50C468B
:1019A000FEF7A1FC48F20003C4F216030022FEF782
:1019B0002BFC0023C4F250030022FEF7B3FBFEF71A
:1019C0009FFC0128B8BFB0BD054600BF2046FFF709
:1019D00085FF0120FEF74CFD013DF7D1B0BD0000B1
:1019E000FEF774BE70470000FEE7000090B0FEF7FF
:1019F0007BFE00240120CDE90B44CDE9094406908B
:101A00000A904FF4E0104FF4803102250F9006A8A1
:101A1000CDE90714CDE90D51FFF704F820B1EFF33C
:101A2000108072B6FEE700BF0F20CDE901054FF42C
:101A30008060CDE9040401A802210394FEF7EAFEC8
:101A400020B1EFF3108072B6FEE700BFFFF71EFE75
:101A5000FFF71EFFFFF75EFEFFF798FE40F25C0403
:101A6000C2F2000420460021FFF7EAFC20684FF490
:101A70007A754FF4FA764563322700BF4FF4B4709D
:101A80000021FFF78BFF6420FEF7F2FC206846631D
:101A90004FF47A70FEF7ECFC206845634FF47A60EF
:101AA000FEF7E6FC013FE9D1E6E702E008C8121FB5
:101AB00008C1002AFAD170477047002001E001C137
:101AC000121F002AFBD17047010200000000000035
:101AD00000000102030406070809000000000102DB
:101AE000030402030405060708090A0B0C0D0E0F78
:101AF00010100000181B000800000020100000005B
:101B0000AA1A0008281B000810000020E0040000AA
:101B1000BA1A0008000000000100000010000000D8
:081B20000024F40000000000A5
:04000005080000ED02
:00000001FF
