:020000040800F2
:10000000580500200101000801200008591A0008C5
:10001000FD1F00085D040008F5270008000000002F
:10002000000000000000000000000000E5260008BD
:100030006104000800000000E1260008ED27000828
:100040001B0100081B0100081B0100081B01000820
:100050001B0100081B0100081B0100081B01000810
:100060001B0100081B0100081B0100081B01000800
:100070001B0100081B0100081B0100081B010008F0
:100080001B0100081B0100081B0100081B010008E0
:100090001B0100081B0100081B0100081B010008D0
:1000A0001B0100081B0100081B0100081B010008C0
:1000B0001B0100081B0100081B0100081B010008B0
:1000C0001B0100081B0100081B0100081B010008A0
:1000D0001B0100081B0100081B0100081B01000890
:1000E0001B0100081B0100081B010008DFF80CD0F1
:1000F00000F092F900480047592A000858050020EE
:100100000648804706480047FEE7FEE7FEE7FEE7B1
:10011000FEE7FEE7FEE7FEE7FEE7FEE7F127000861
:10012000ED0000082DE9FE4F81EA030404F00044CD
:1001300021F0004100944FF0000B23F0004350EAFF
:1001400001045ED052EA03045BD0C3F30A54C1F346
:100150000A552C44A4F2F3340194A0FB0254C1F3D9
:10016000130141F48011C3F3130343F4801301FB23
:10017000024400FB034E840A970A44EA815447EA8A
:100180008357A4FB076802958D0A05FB07854FEA94
:10019000932C04FB0C542705029D4FEA065847EAAE
:1001A0001637B5EB08056EEB070C870E920E47EA83
:1001B000811742EA8312A7FB0201B6EB0B0164EB45
:1001C00000042B0D43EA0C335E1844EB1C50DA4656
:1001D0005146E7FB0201C5F313044FEA0B3343EA30
:1001E00014534FEA0432019C43EA0603A4F10C04C1
:1001F0000294009CCDE900B400F0C0F803B0BDE863
:10020000F08F00200146F9E72DE9F04D81EA030463
:1002100004F0004B21F0004514464FF0000A23F093
:10022000004150EA050220D054EA01021DD0C5F376
:100230000A570246C5F31303C1F31300C1F30A566C
:1002400040F4801543F48013A7EB0608101BD64634
:1002500008F2FD3873EB050002D308F1010801E054
:1002600092185B41B8F1000F03DA00200146BDE8A7
:10027000F08D00204FF48011064684460EE0171BD7
:1002800073EB050705D3121B63EB050306434CEA2A
:10029000010C49084FEA300092185B4150EA01070F
:1002A000EDD152EA030012D082EA040083EA05018C
:1002B000084305D0101BAB4106D20122002306E003
:1002C00000224FF0004302E06FF0010253101AEBDE
:1002D00006004CEB085110EB0A0041EB0B01BDE8A6
:1002E000F04D00F03CB80EB540F2334102910021D0
:1002F000CDE900110A460B4600F040F803B000BDFE
:1003000070B5C1F30A5201F000450024C1F3130196
:1003100040F2FF3341F480119A4201DA002070BDAF
:1003200040F233439A42A2F2334203DC524200F0DD
:1003300006F800E090402C43F1D0404270BD202AE6
:1003400004DB203A21FA02F00021704721FA02F37F
:10035000D040C2F12002914008431946704710B5C1
:10036000141E73F1000408DA401C41F100019218D8
:100370005B411A4301D120F0010010BD2DE9F04D81
:1003800092469B4611B1B1FA81F202E0B0FA80F2D6
:100390002032904600F052F804460F4640EA0A0028
:1003A00041EA0B0153465A46084313D0114653EA1B
:1003B000010019D0C8F140025046FFF7C0FF0546C2
:1003C0000E4650465946424600F038F8084305D0DC
:1003D000012004E020463946BDE8F08D00200543A9
:1003E00046EAE0762C4337430A986305E40AA0EB1B
:1003F00008000022FD0A44EA47540A3002D50020D2
:100400000146E9E7010510196941DDE908450019D0
:100410006941BDE8F04DA2E7064C074D06E0E068F3
:1004200040F0010394E8070098471034AC42F6D33B
:10043000FFF760FE5852000878520008202A04DBBB
:10044000203A00FA02F1002070479140C2F12003E7
:1004500020FA03F31943904070470000FEE70000C4
:1004600070470000EFF3108072B600BFFEE7000097
:10047000B0B5044600F024F9054640F20000C2F28F
:1004800000000078611C18BF044400BF00F018F998
:10049000401BA042FAD3B0BD2DE9F04F82B00E68E8
:1004A000002E00F0038140F20C4C41F200424FF666
:1004B000FF7EC4F2010CC4F20102042700240123D0
:1004C000C1F2100E4FF0000A4FF00009904208BF31
:1004D0000327009745E000BF012704F00C030F221B
:1004E0009A402BEA020207FA03F34FEA9A051A43ED
:1004F00046F82520D1F804B040F20045C4F20105C9
:100500005FEACB322A6854BF22EA080242EA0802B4
:100510002A606A685FEA8B3354BF22EA080242EA23
:1005200008026A605FEACB23AA6854BF22EA080285
:1005300042EA08025FEA8B23AA60DCF800204FF051
:10054000010354BF22EA080242EA0802CCF8002064
:100550000E680AF1010A36FA0AF204F1040400F006
:10056000A58003FA0AF816EA080FF1D04E6876451E
:1005700012DC122E56D8DFE806F0350B45495555EA
:1005800055555555555555555555554D510000BF67
:10059000D1F80C9046E000BF4FF6FF72C1F2210285
:1005A00096420FDC0022C1F2110296421AD00022BC
:1005B000C1F21202964215D00022C1F221029642E7
:1005C00010D02FE00022C1F2220296420AD000226F
:1005D000C1F23102964205D00022C1F232029642A7
:1005E00020D100BF8A684AB1012A14BFC0F8148024
:1005F000C0F810804FF0080914E000BF4FF0040964
:1006000010E000BFCA6802F108090BE04FF00009D2
:1006100008E000BFCA6802F1040903E0CA6802F1F9
:100620000C0900BF22460646BAF1080F24BF203A43
:10063000043637680F25954027EA050509FA02F2C6
:100640002A433260CA79D2067FF582AF41F218039D
:10065000C4F202031A6842F001021A601A6802F03A
:1006600001020192019A40F20042C4F20102A2F595
:100670007E762AF0030256F802B040F60002C4F279
:100680000102904210D040F60042C4F201029042B2
:100690003FF422AF41F20002C4F20102009F9042F7
:1006A00008BF022719E700BF002716E702B0BDE820
:1006B000F08F0000002A08BF0904016170470000A4
:1006C00040F25410C2F200000068704770B5B8B331
:1006D000044690F83D0028B9002084F83C002046EC
:1006E00000F09EF9242084F83D002068016821F084
:1006F00001010160016841F400410160016821F4D9
:100700000041016000F04EFB48F28041C0F21E0142
:1007100040F60013D4F804E088424FF00001C0F224
:100720003D0348F2A16C4FF0000238BF012198420E
:10073000C0F2010C38BF0122E64538BF0A460AB1B3
:10074000012070BD4DF68361C4F21B31A0FB011284
:100750002168950C4B684FF4967623F03F0343EAEB
:100760009243754344F6D3564B60C1F262060B6A5E
:10077000A5FB0656B50923F03F03E64538BF950CA7
:100780006A1C1A430A62CA6948F2A0664CF6FF73F3
:10079000C0F20106B64522EA03020BD801384FEA3F
:1007A0004E03B0FBF3F001306FF31F30042898BF05
:1007B00004201EE0A368013863B119230EFB03F384
:1007C000B0FBF3F001306FF31F3078B100F58040DB
:1007D00008E000BF0EEB4E03B0FBF3F001306FF307
:1007E0001F3028B100F5004003E000BF012000E009
:1007F00001201043C8610868D4E9072320F0C00035
:10080000104318430860886848F2FF3204F10C0670
:1008100090434CCE18431043A5698860C86820F007
:10082000FF0030432843C860086840F001000860BA
:1008300000202021206484F83D10206384F83E00CD
:1008400070BD00002DE9F04383B0994616460F466F
:100850000446FFF735FF94F83D1020291CD10546CA
:1008600020688169890713D5FFF72AFF401B1928E3
:10087000F6D900202021206384F83D1084F83E0042
:10088000216C41F02001216484F83C0004E000BFA9
:1008900094F83C10012903D1022003B0BDE8F08395
:1008A000012284F83C200368DDE90B180A9ADB0773
:1008B00003D1036843F001030360036823F400637A
:1008C0000360212084F83D00402084F83E00002091
:1008D000206462626185608D394620850020CFF6F4
:1008E000FF70E062204632464B46CDF8008001950D
:1008F00001F0B4F820B1012003B0BDE8F08300BFDF
:10090000208D002850D0206808F10106014651F8DA
:10091000142F12062CD49EB1B8F1000F5AD000BF8C
:10092000086840055ED4FFF7CBFE401B404556D813
:100930002068014651F8142F1206F1D518E000BFC7
:100940000A6852054ED40A68120611D40A68520584
:1009500048D40A6812060BD40A68520542D40A68C1
:10096000120605D40A6852053CD40A681206E7D577
:10097000626A114611F8013B0361238D6162591EC1
:100980002185678D013F678547697F070AD50F0479
:1009900008D051780161911C6162991E2185628D98
:1009A000013A62850904B1D1204641462A4601F048
:1009B0008FF938BB2068016841F400710160202084
:1009C00084F83D00002084F83E0084F83C0003B029
:1009D000BDE8F0830868400504D4FFF771FE2020CD
:1009E00004E000BF6FF48060086004200021202232
:1009F000216384F83D2084F83E10226C104320646B
:100A000084F83C10206C04287FF475AF20680168DE
:100A100041F400710160012003B0BDE8F0830000E3
:100A200010B586B0006845F20042C4F20002002111
:100A30009042049102D006B010BD00BF41F21804EC
:100A4000C4F20204206802A940F008002060206877
:100A500000F00800019001984FF4407002901220BD
:100A600003900320059040F60040C4F20100FFF718
:100A700013FD0420C4F20100016841F0E06141F07F
:100A800002010160606840F400106060606800F47A
:100A900000100190019806B010BD000040F2000067
:100AA00040F25411C2F20000C2F2000100780A685C
:100AB000104408607047000080B542F20000C4F2A4
:100AC0000200016841F010010160032000F07AF893
:100AD0000F2000F005F800F027F8002080BD00008E
:100AE00070B540F20006C2F2000640F224013278EE
:100AF000C2F200014FF47A730968B3FBF2F20446C4
:100B0000B1FBF2F1084600F04FFB0F2C4FF001054E
:100B100008D838B94FF0FF3021460022002500F0F8
:100B200025F87460284670BD82B041F21800C4F206
:100B300002000168022241F001010160016801F038
:100B4000010101910199416841F080514160406883
:100B500000F08050009000980420C4F20100016869
:100B600062F31A61016002B07047000010B54EF6E2
:100B70000C5CCEF2000CDCF80030C3F3022E8EF0D9
:100B80000704042C28BF0424BEF103034FF0FF3EEA
:100B90000EFA04F438BF0023A14399400EFA03F380
:100BA0009A43114300F00F0200F160430901043A37
:100BB00003F564436244002848BF02F10C03197036
:100BC00010BD00004EF60C51CEF200010A684FF63F
:100BD000FF031A4060F30A2242F0806040F0FD708B
:100BE000086070472DE9F04381B0002800F085804F
:100BF00042F20008C4F202080446D8F800000D468C
:100C000000F0070088420CD2D8F8000020F007005E
:100C10002843C8F80000D8F8000000F00700A842F8
:100C20006BD1206841F204098107C4F2020917D58B
:100C3000410705D5D9F8001041F4E061C9F800106A
:100C4000010705D5D9F8001041F46051C9F800102A
:100C5000D9F80010A26821F0F0011143C9F8001082
:100C6000C00741D1D8F8000000F00700A8420CD915
:100C7000D8F8000020F007002843C8F80000D8F892
:100C8000000000F00700A84237D12068410707D5CF
:100C9000D9F80010E26821F4E0611143C9F80010AE
:100CA000000708D5D9F80000216920F4605040EA17
:100CB000C100C9F80000D9F8002002F00C00082893
:100CC00041F20020C0F27A0050D145F24823C2F32D
:100CD0008341C0F60003595CD2033BD440F60010B8
:100CE000C0F23D00484341E0606802280AD0012874
:100CF0002AD159F8041C890308D4012001B0BDE8A9
:100D0000F08300BF59F8041C8901F6D5D9F800100A
:100D100021F003010843C9F80000FFF7D1FC0646A3
:100D200041F28837D9F80000616800F00C00B0EBA0
:100D3000810F97D0FFF7C4FC801BB842F2D9032083
:100D400001B0BDE8F08300BF59F8041C8907D4D571
:100D5000DCE700BFD9F8002042F64443C2F340422A
:100D6000C0F600039A5C4843B0FBF2F0D9F80010DB
:100D700042F64642C1F30311C0F60002515C40F254
:100D8000240220FA01F140F20400C2F200000068DF
:100D9000C2F200021160FFF7A3FE002001B0BDE81F
:100DA000F083000040F2240041F20401C2F200008E
:100DB000C4F202010068096842F65642C1F30221FA
:100DC000C0F60002515CC8407047000040F22400A9
:100DD00041F20401C2F20000C4F202010068096895
:100DE00042F65642C1F3C221C0F60002515CC8402F
:100DF000704700002DE9F04182B0002868D0044619
:100E0000007841F20006C007C4F2020625D07068DF
:100E100000F00C0004281BD0706800F00C000828BB
:100E200002D17068C00313D46068002800F06881A4
:100E3000B0F5A02F00F07C81B0F5803F00F07C8100
:100E4000306820F480303060306820F4802076E113
:100E50003068800301D56068D0B32078800718D54A
:100E6000706810F00C0F07D0706800F00C000828B4
:100E70006ED17068C0036BD43068800702D52069DA
:100E8000012825D13068616920F0F80040EAC100EE
:100E90003060207800071FD42078400732D4E569FD
:100EA00095B1706800F00C00082840F08F80012D8B
:100EB0000ED07068216A00F480328A4208D1616ADB
:100EC00000F47010884203D1002002B0BDE8F08128
:100ED000012002B0BDE8F081A069002862D00020A6
:100EE000C4F242200121C0F88014FFF7E9FB054657
:100EF000706A800700F18C80FFF7E2FB401B02283C
:100F0000F6D92AE1F06910F0805808D1F06940F074
:100F10008050F061F06900F080500090009847F236
:100F20000007C4F200073868C00529D4386840F4C7
:100F300080703860FFF7C4FB054600BF3868C00505
:100F40001ED4FFF7BDFB401B6428F7D905E100BFA5
:100F50002069002840F20000C4F2422000F08280A4
:100F600001210160FFF7ACFB054600BF3068800738
:100F70003FF588AFFFF7A4FB401B0228F6D9ECE051
:100F8000E068002800F08080052800F097800128A4
:100F900000F09880306A20F001003062306A20F062
:100FA000040092E00020C4F242200021C0F8801426
:100FB000FFF786FB054600BF706A80077FF56CAFC0
:100FC000FFF77EFB401B0228F6D9C6E00027C4F2DB
:100FD000422700203866FFF773FB022D05460BD130
:100FE0003068800140F1BE80FFF76AFB401B022899
:100FF0004FF00300F4D968E7306880017FF564AFF3
:10100000FFF75EFB401B02284FF00300F4D95CE7BA
:1010100040F22400C2F20000006844F6D351C1F24D
:101020006201A0FB0101480A019000BF00BF0198C6
:10103000411E002801913FF42FAF00BF0198411ECF
:10104000002801913FF428AF00BF0198411E0028FD
:1010500001913FF421AF00BF0198411E002801918A
:10106000E4D119E700210160FFF72AFB054600BF24
:10107000306880077FF50DAFFFF722FB401B022889
:101080004FF00300F4D920E7306A20F0010030620D
:10109000306A20F004003062FFF712FB054641F28F
:1010A000883700BF306A800720D5FFF709FB401B57
:1010B000B8424FF00300F5D907E700BF306A40F0AF
:1010C00004003062306A40F001003062FFF7F8FA45
:1010D000054641F2883700BF306A800706D4FFF723
:1010E000EFFA401BB842F7D937E000BFB8F1000F64
:1010F0007FF4D5AEF06920F08050F061CFE600BFFC
:10110000306820F480303060306820F48020306017
:10111000FFF7D6FA054600BF306880037FF59DAE25
:10112000FFF7CEFA401B64284FF00300F4D9CCE659
:10113000306840F480203060306840F480303060A7
:10114000FFF7BEFA054600BF306880033FF585AE65
:10115000FFF7B6FA401B6428F6D9032002B0BDE8B9
:10116000F08100BF206AB0F5803F05D17168A268A8
:1011700021F40031114371607168626A21F47411C5
:1011800011430843706001203866FFF799FA04465E
:10119000306880013FF598AEFFF792FA001B0228F5
:1011A0004FF00300F4D990E6411E0020B0EB116F20
:1011B0001CBF012070474EF21002CEF200025160B7
:1011C0004EF62351CEF20001F0230B700721906000
:1011D0001160704710B590F83C20012A4FF00202D0
:1011E00033D080F83D200268D2F804E0D2F808C07D
:1011F0000C682EF07003234340F2FF74C4F2000425
:10120000A24253600ADCB2F1804F13D040F2004397
:10121000C4F200039A420DD011E000BF42F6004331
:10122000C4F201039A4205D040F60003C4F2000361
:101230009A4204D149682CF080031943916001213E
:10124000002280F83D1080F83C20104610BD0000C0
:10125000002804BF0120704710B5044690F83D00F7
:1012600028B9002084F83C00204600F067F80220EE
:1012700084F83D00206840F2FF730268C4F2000366
:1012800042F6004C9842C4F2010C15DCB0F1804FDC
:101290001AD040F20041C4F20001884214D09842B2
:1012A00018DCB0F1804F1DD040F20041C4F20001C3
:1012B000884217D01AE000BF604505D040F6000113
:1012C000C4F200018842EAD1A16822F070020A4308
:1012D0009842E6DD604505D040F60001C4F2000109
:1012E000884203D1216922F440720A43A36922F0A3
:1012F0008001D4F804E0E268194360450160C262ED
:10130000C0F828E002D16169CCF8301001214161B8
:10131000002084F8461084F83E1084F83F1084F8CA
:10132000401084F8411084F8421084F8431084F887
:10133000441084F8451084F83D1010BD82B0006858
:10134000B0F1804F14D042F60041C4F2010188424E
:101350001BD141F21800C4F20200016841F400619F
:101360000160006800F400600190019802B07047CD
:1013700041F21800C4F20200416841F001014160ED
:10138000406800F001000090009802B07047000033
:1013900080B590F83C20012A4FF0020200F0BF8097
:1013A00080F83D20D0F800C04FF67772DCF80830A6
:1013B00023EA0202CCF808200B683F2B1CDD5F2BD0
:1013C00020DD602B50D0B3F5005F6DD0702B40F066
:1013D000A080D1E901E3C968DCF8082043EA0E03E4
:1013E00022F47F4243EA01211143CCF80810DCF8D3
:1013F000081041F077018AE01F2B29DC63B3102B22
:101400002AD086E0402B63D0502B40F08280D1F868
:1014100004E0C968DCF82030DCF8202022F001026A
:10142000CCF82020DCF8182022F0F00242EA01116A
:1014300023F00A0242EA0E02CCF81810CCF8202061
:10144000DCF8081041F0570121F020015FE000BFF7
:10145000202B01D0302B5CD1DCF8081021F070017A
:10146000194341F0070152E0D1F804E0C968DCF803
:10147000203023F01003CCF82030DCF81830DCF8F2
:10148000202023F4704322F0A00243EA013142EA13
:101490000E12CCF81810CCF82020DCF8081041F01F
:1014A000670121F0100132E0D1E901E3C968DCF8FD
:1014B000082043EA0E0322F47F4243EA012111434C
:1014C000CCF80810DCF8081041F480411FE000BFA0
:1014D000D1F804E0C968DCF82030DCF8202022F0E4
:1014E0000102CCF82020DCF8182022F0F00242EAB9
:1014F000011123F00A0242EA0E02CCF81810CCF8CF
:101500002020DCF8081041F0470121F03001CCF830
:1015100008100121002280F83D1080F83C20104680
:1015200080BD00002DE9F04390F83C30012B04BF52
:101530000220BDE8F0834FEAB202032A00F2E980FC
:10154000DFE802F0023A78B4036842F600461A6A0D
:10155000C4F2010622F001021A621D6A1A465C6892
:1015600052F818CFB3428E68D1F800E025F002059A
:1015700045EA06050CD1CE68D1E9057824F440741B
:1015800025F00C0526F004063C43354344EA0804E4
:101590002CF0730747EA0E075C609F614F6809698A
:1015A0005F631D629F6947F008079F619F6927F08D
:1015B00004079F61AAE000BF036842F600461A6A6A
:1015C000C4F2010622F010021A621D6A1A46D3F80C
:1015D00004C052F8184FB3428E68D1F800E025F0ED
:1015E000200545EA061510D1CE68D1E9058725F01A
:1015F000C0096FF0400505EA06152CF4406647EA7D
:10160000080745EA090546EA870C24F4E64444EA5B
:101610000E27C3F804C09F614F6809699F631D626C
:101620009F6947F400679F619F6927F480679F6106
:101630006BE000BF036842F600461A6AC4F2010676
:1016400022F480721A621D6A1A46D3F804C052F856
:101650001CEFB3428E680C6825F4007545EA062538
:1016600011D1CE68D1E9058725F44069360240F2F0
:10167000FF4526EA05052CF4405647EA080745EAE7
:10168000090546EA071C2EF073072743C3F804C078
:10169000DF614F680969DF631D62DF6947F0080792
:1016A000DF61DF6927F00407DF612FE0036842F69E
:1016B00000471A6AC4F2010722F480521A621A46DD
:1016C000D3F820C05D6852F81C4FD1F800E08E6856
:1016D000BB4204D14F6925F4804545EA87152CF4B7
:1016E000005747EA063724F4E64646EA0E265D60D0
:1016F000DE614E6809691E641F62DF6947F4006796
:10170000DF61DF6927F48067DF610902136819432D
:101710001160002180F83C100846BDE8F08300000D
:10172000002804BF0120704710B5044690F83D0022
:1017300028B9002084F83C00204600F067F8022019
:1017400084F83D00206840F2FF730268C4F2000391
:1017500042F6004C9842C4F2010C15DCB0F1804F07
:101760001AD040F20041C4F20001884214D09842DD
:1017700018DCB0F1804F1DD040F20041C4F20001EE
:10178000884217D01AE000BF604505D040F600013E
:10179000C4F200018842EAD1A16822F070020A4333
:1017A0009842E6DD604505D040F60001C4F2000134
:1017B000884203D1216922F440720A43A36922F0CE
:1017C0008001D4F804E0E268194360450160C26218
:1017D000C0F828E002D16169CCF8301001214161E4
:1017E000002084F8461084F83E1084F83F1084F8F6
:1017F000401084F8411084F8421084F8431084F8B3
:10180000441084F8451084F83D1010BD7047000066
:1018100041B1082910D0042914BF00F1410200F1A0
:101820003F020BE090F83E20012A1CBF01207047C8
:10183000022280F83E2013E000F140021278012AD3
:101840001CBF012070470222082907D0042914BFB9
:1018500080F8412080F83F2002E000BF80F840205F
:10186000006801F01F010122036A8A4023EA020195
:101870000162036A42F64441C4F201011A43A1F134
:101880004403984202620FD040F2FF71C4F200019B
:10189000884213DCB0F1804F1CD040F20041C4F20A
:1018A0000001884216D01CE00A6842F400420A6037
:1018B00040F2FF71C4F200018842EBDD42F60041C4
:1018C000C4F20101884205D040F60001C4F20001D3
:1018D000884206D1816801F00701062904BF002073
:1018E0007047016841F0010101600020704700006D
:1018F000002804BF0120704710B5044690F83D0051
:1019000028B9002084F83C00204600F061F824202B
:1019100084F83D002068D4E90212C36823F4005320
:10192000C360036923F440531A430261D4E90423DA
:101930001143C268194341F20C639A431143C160D9
:101940004169A26921F44071114343F60002C4F2D7
:1019500001029042416103D0FFF724FA02E000BF88
:10196000FFF734FA6268192148439100B0FBF1F0A7
:1019700048F21F51C5F2EB11A0FB01235A094FF6A3
:101980009C73C0F6FF7302FB0300322303EB0010CD
:10199000A0FB0101F02303EA5113206803EB0212BC
:1019A000C1F3431111448160016921F49041016147
:1019B000416921F02A014161C16841F40051C160CF
:1019C00000202021206484F83D1084F83E1010BDD2
:1019D00070B586B040F60044C4F20104006804F516
:1019E000305100268842049602D006B070BD00BF78
:1019F00041F21800C4F20200016802AD41F48041D6
:101A00000160016801F4804101910199016841F090
:101A1000080101600068294600F008000190019863
:101A20004020029002200390032005902046FEF7FC
:101A300033FD8020CDE90206204629460496FEF7B4
:101A40002BFD0420C4F20100016841F0E06141F087
:101A50000401016006B070BDFEE700002DE9F0430F
:101A600081B00446006890460268099D42F4807285
:101A700002604269089E9946D2070F461DD1711C2B
:101A800011D0002E00F0D280FEF71AFE401BB042AB
:101A900000F2CE8020684169C907F5D00DE000BF93
:101AA0004169C90709D14169C90706D14169C90717
:101AB00004BF41695FEAC171F2D007F0FE01016124
:101AC0004169890738D44169721C01F4806111D0E1
:101AD00049BB002E00F0E880FEF7F2FD401BB0424B
:101AE00000F2E48020684169890725D441694905ED
:101AF000F2D518E0B9B9416989071DD44169490592
:101B000011D44169890717D4416949050BD441694A
:101B1000890711D44169490505D4416989070BD466
:101B200041694905E7D5016841F4007101606FF42E
:101B3000806141610420BAE000210091014651F822
:101B4000142F00924A680092009A0A6812061ED466
:101B5000002E00F08580721C4DD10A68520500F1FC
:101B600087800A68120612D40A68520500F1808044
:101B70000A6812060BD40A68520579D40A6812065C
:101B800005D40A68520573D40A681206E5D5B9F17E
:101B9000010F43D04FEA18210161014651F8142F7B
:101BA00012063BD4002E5BD0721C29D10A68520564
:101BB0005ED40A68120631D40A68520558D40A68FD
:101BC00012062BD40A68520552D40A68120625D48C
:101BD0000A6852054CD40A681206E7D51EE000BF19
:101BE000FEF76EFD401BB0423FD82068014651F819
:101BF000142F1206CBD408684005F1D538E000BF99
:101C00000868400534D4FEF75BFD401BB0422CD879
:101C10002068014651F8142F1206F1D55FFA88F1B9
:101C20000161002001B0BDE8F08300BFFEF748FD70
:101C300000202021206384F83D1084F83E00216CB0
:101C400041F020012164216884F83C000868C00547
:101C500044BF4FF400702064032001B0BDE8F0835E
:101C60000868400504D4FEF72BFD202004E000BFE7
:101C70006FF480600860042000212022216384F832
:101C80003D2084F83E10226C1043206484F83C1000
:101C9000206C042817D12068016841F400710160AC
:101CA000012001B0BDE8F083FEF70AFD20200021ED
:101CB0002022216384F83D2084F83E10226C1043DA
:101CC000206484F83C10012001B0BDE8F0830000DE
:101CD00070B50368044653F8140F400737D40E4616
:101CE000F1B1701C24D100BF1868400532D41868C7
:101CF00040072CD4186840052CD41868400726D417
:101D00001868400526D41868400720D41868400594
:101D100020D4186840074FF0000048BF70BDE3E7CB
:101D20001868400516D4FEF7CBFC202016E000BF53
:101D3000154600BF186840050CD4FEF7C1FC401BD7
:101D4000B042F2D8236853F8140F4007F2D50020B0
:101D500070BD00BF6FF48060186004200021202255
:101D6000216384F83D2084F83E10226C10432064E7
:101D7000012084F83C1070BD70B584B041F21800A9
:101D8000C4F20200016840F6004441F01001016015
:101D90000168C4F2010401F010010091009901688A
:101DA000002241F02001016001684FF4704501F00C
:101DB0002001009100990168002641F004010160B2
:101DC000016801F0040100910099016841F00801E7
:101DD000016000684FF4704100F008000090009826
:101DE0002046FEF767FC0120CDE9010602200390A2
:101DF000694620460095FEF74FFB04B070BD000019
:101E000080B540F22C0045F20041C2F20000C4F25D
:101E1000000148F2A06200234FF4804CC0F201029E
:101E200080E80E00C0E9033CC0E90533C0E9073390
:101E3000FEF74CFC002808BF80BDBDE88040FEF7DF
:101E400011BB000080B586B040F2800042F600422F
:101E50000021C2F20000C4F2010247234FF6FF7CCA
:101E60000591CDE90311CDE90011C0E90023C0E9D6
:101E7000021CC0E904118161FFF7EAF9002818BFCC
:101E8000FEF7F0FA4FF48050029040F28000C2F268
:101E9000000002A9FFF77CFA002818BFFEF7E2FA5B
:101EA00040F28000C2F200006946FFF793F9002873
:101EB00018BFFEF7D7FA06B080BD000010B594B089
:101EC00040F2C8000021C2F200004FF080424723D8
:101ED00044F61F640E91CDE90C110991CDE907116B
:101EE000CDE90511CDE90311CDE90111C0E90023C8
:101EF000C0E9021401618161FFF7AAF9002818BF47
:101F0000FEF7B0FA4FF480500B9040F2C800C2F2D6
:101F100000000BA9FFF73CFA002818BFFEF7A2FA51
:101F200040F2C800C2F20000FFF7FAFB002818BF19
:101F3000FEF798FA40F2C8000024C2F2000008A997
:101F4000CDE90844FFF746F9002818BFFEF78AFAE2
:101F5000602001904FF4FA70CDE90204059440F23C
:101F6000C804C2F2000401A920460022FFF7DAFAF1
:101F7000002818BFFEF776FA20680021B0F1804FE4
:101F8000129101D014B010BD41F21800C4F2020049
:101F9000016841F004010160006810A900F004002C
:101FA0000F900F980120109002201190139040F68E
:101FB0000000C4F20100FEF76FFA14B010BD00007B
:101FC00080B540F2101043F60001C2F20000C4F2E6
:101FD000010100234FF00C0C4FF4165280E80E0064
:101FE000C0E90333C0E905C3C361FFF781FC0028E2
:101FF00008BF80BDBDE88040FEF734BAFEE70000B0
:10200000FEE700002DE9F04F85B040F22C040025DA
:102010004FF480760127C2F200040DF1120B0DF18E
:1020200013084FF0000900BF09F1B0008DF810004F
:1020300004A8CDE90007204678210022012302965A
:10204000FEF700FC0DF11100CDE9000720467821D4
:10205000002201238DF811500296FEF7F3FB1020A9
:102060008DF812002046782100220123CDE900B727
:102070000296FEF7E7FB4FF0000A00BF20467821EA
:10208000402201238DF81350CDE900870296FEF718
:10209000D9FB0AF101004FFA80FABAF1FF3FEDDCFB
:1020A000B9F1070F09F10109BED305B0BDE8F08F02
:1020B00080B5C820FEF7DCF9BDE8804000F09CBB8D
:1020C0002DE9F04F89B040B20D46A2F12001002861
:1020D00020EAE0724FF0100748BF0235A5F150002A
:1020E00047EA121402F00F07102BCEB240F03A81EB
:1020F00040F22C088DF818004FF0010B06A8C2F230
:1021000000084FF48079CDE9000B40467821002289
:102110000123CDF80890FEF795FB0DF11900CDE9EC
:10212000000B40467821002201238DF81940CDF89C
:102130000890FEF787FB0DF11A00CDE9000B404631
:102140007821002201238DF81A70CDF808904FF401
:102150008079FEF777FB42F686613001C0F6000118
:10216000085C01EB06168DF81B0005970DF11B07A7
:102170004046782140220123CDE9007BCDF808902C
:10218000FEF760FB7078317996F802A0049496F817
:10219000039003918DF81B004046782140220123D3
:1021A0004FF48074CDE9007B0294FEF74BFB404670
:1021B0007821402201234FF480748DF81BA0CDE9D3
:1021C000007B0294FEF73EFB40467821402201232B
:1021D0008DF81B90CDE9007B0294FEF733FB03984A
:1021E00078218DF81B00404640220123CDE9007B79
:1021F0000294FEF727FB707978218DF81B0040468A
:1022000040220123CDE9007B0294FEF71BFBB0794D
:1022100078218DF81B00404640220123CDE9007B48
:102220000294FEF70FFBF07978218DF81B004046F1
:1022300040220123CDE9007B0294FEF703FBA5F1C8
:102240004F008DF81C0007A8CDE9000B404678210F
:10225000002201230294FEF7F5FA049878218DF804
:102260001D000DF11D00CDE9000B404600220123A9
:102270000294FEF7E7FA059878218DF81E000DF11B
:102280001E00CDE9000B4046002201230294FEF718
:10229000D9FA307A0DF11F058DF81F0040467821DC
:1022A00040220123CDE9005B0294FEF7CBFA707A5D
:1022B00078218DF81F00404640220123CDE9005BC4
:1022C0000294FEF7BFFAB07A78218DF81F004046DD
:1022D00040220123CDE9005B0294FEF7B3FAF07AC5
:1022E00078218DF81F00404640220123CDE9005B94
:1022F0000294FEF7A7FA307B78218DF81F00404644
:1023000040220123CDE9005B0294FEF79BFA707B2B
:1023100078218DF81F00404640220123CDE9005B63
:1023200002944FF48074FEF78DFAB07B78218DF81B
:102330001F00404640220123CDE9005B02944FF488
:102340008074FEF77FFAF07BCDE9005B8DF81F000B
:1023500040467821402201230294FEF773FA09B027
:10236000BDE8F08F40F22C0B8DF820004FF0010AF1
:1023700008A8C2F2000B4FF48078CDE9000A584655
:10238000782100220123CDF80880FEF75BFA0DF1D9
:102390002100CDE9000A58467821002201238DF85A
:1023A0002140CDF80880FEF74DFA0DF12200CDE96D
:1023B000000A58467821002201238DF82270CDF8BA
:1023C0000880FEF73FFA42F65E4106EB4600C0F693
:1023D000000111F8102001EB40058DF823200DF1CC
:1023E00023065846782140220123CDE9006ACDF822
:1023F0000880FEF727FA6878AF78EC7895F80490B3
:102400008DF823005846782140220123CDE9006A47
:10241000CDF80880FEF716FA5846782140220123AD
:102420008DF82370CDE9006ACDF80880FEF70AFA2E
:1024300058467821402201238DF82340CDE9006AD7
:10244000CDF80880FEF7FEF9584678214022012396
:102450008DF82390CDE9006ACDF80880FEF7F2F9F7
:10246000687978218DF82300584640220123CDE970
:10247000006ACDF80880FEF7E5F909B0BDE8F08FF5
:102480002DE9F04F87B00646A1F1500040F22C052F
:102490008DF81400012705A8C2F200051446049126
:1024A0004FF4807ACDE900072846782100220123E5
:1024B000CDF808A0FEF7C6F9300900F110080DF1BB
:1024C0001500CDE9000728467821002201238DF868
:1024D0001580CDF808A0FEF7B5F90DF1160006F04D
:1024E0000F0BCDE9000728467821002201238DF843
:1024F00016B0CDF808A0FEF7A5F943F26641C4EB8B
:102500000420C0F6000101EB40064FF0FF340DF14E
:10251000170900BF3019407878218DF81700284638
:1025200040220123CDE90097CDF808A0FEF78AF9F3
:1025300001341F2CEED1049840F22C044F388DF852
:1025400018004FF0010A06A8C2F200044FF4807987
:10255000CDE9000A2046782100220123CDF8089019
:10256000FEF770F90DF11900CDE9000A2046782137
:10257000002201238DF81980CDF80890FEF762F94A
:102580000DF11A00CDE9000A20467821002201232E
:102590008DF81AB0CDF80890FEF754F9FE250DF12C
:1025A0001B0700BF7019407878218DF81B0020466A
:1025B00040220123CDE9007ACDF80890FEF742F9D8
:1025C0000135B5F58F7FEDD107B0BDE8F08F000084
:1025D0002DE9F04F85B0002B049103907CD00E982C
:1025E0001C464508981E009058421746591E4FF049
:1025F00000085FFA80FB42F2107900264FF0000AD3
:102600000291019212E000BF0126039940F03002CE
:1026100005FB08110E9BC8B20499D2B2FFF750FD1A
:1026200008F10108A0450AF1010A55D06FEA0A0035
:10263000C0B2584502D101202AE000BF00996FEADC
:102640000800A1EB0801C9B2032900EB040101D283
:10265000012009E001F0FC02002301200433DFB275
:10266000974200FB09F0F9D1019F11F003010FD04F
:10267000012903D100EB8000400009E04FF47A7299
:10268000424302294FF0640108BF00FB01F21046EB
:10269000B7FBF0F04CF6CD41CCF6CC41A0FB0112DB
:1026A000D10801EB8101002EA0EB4100ADD10299D0
:1026B0004145AADD0028A7D10398049905FB08002D
:1026C0000E9BC0B22022FFF7FBFC002608F1010898
:1026D000A0450AF1010AA9D105B0BDE8F08F0000BC
:1026E00070470000704700002DE9F04381B040F2D0
:1026F0002809C2F20009044699F80000012C03D110
:10270000E0B3013889F80000C0B2072804D94CB3FF
:1027100001B0BDE8F08300BF1BA10A5C1CA10D5CE9
:102720001DA140F600470E5C1DA1C4F2010711F87F
:10273000008038464FF48051FDF7BCFF38464FF417
:1027400000512A46FDF7B6FF38464FF48041324625
:10275000FDF7B0FF38464FF400414246FDF7AAFFAF
:10276000002CD5D199F80000411CC8B2083818BF18
:10277000084689F8000001B0BDE8F083082089F818
:10278000000001B0BDE8F08301010000000000017D
:102790000001010100000000000000010101000033
:1027A0000000000000010101B0B50C46FDF79BFDE3
:1027B00048F20003C4F216030022FDF725FD0023B2
:1027C000C4F250030022FDF7ADFCFDF799FD01288E
:1027D000B8BFB0BD054600BF2046FFF785FF01200A
:1027E000FDF746FE013DF7D1B0BD0000FEF756B93A
:1027F00070470000FEE70000F0B583B040F22C0403
:1028000040F20807C2F200044FF480750126C2F2BC
:1028100000072046782100220123CDE900760295A9
:10282000FEF710F8781CCDE900062046782100223A
:1028300001230295FEF706F8B81CCDE900062046F4
:102840007821002201230295FDF7FCFFF81CCDE959
:10285000000620467821002201230295FDF7F2FFB1
:10286000381DCDE90006204678210022012302957B
:10287000FDF7E8FF781DCDE900062046782100220B
:1028800001230295FDF7DEFFB81DCDE900062046C5
:102890007821002201230295FDF7D4FFF81DCDE930
:1028A000000620467821002201230295FDF7CAFF89
:1028B00007F10800CDE90006204678210022012317
:1028C0000295FDF7BFFF07F10900CDE9000620469C
:1028D0007821002201230295FDF7B4FF07F10A00D9
:1028E000CDE9000620467821002201230295FDF75C
:1028F000A9FF07F10B00CDE9000620467821002250
:1029000001230295FDF79EFF07F10C00CDE90006BB
:1029100020467821002201230295FDF793FF07F15D
:102920000D00CDE900062046782100220123029502
:10293000FDF788FF07F10E00CDE90006204678215B
:10294000002201230295FDF77DFF07F10F00CDE97D
:10295000000620467821002201230295FDF772FF30
:1029600007F11000CDE9000620467821002201235E
:102970000295FDF767FF07F11100CDE9000620463B
:102980007821002201230295FDF75CFF07F1120078
:10299000CDE9000620467821002201230295FDF7AB
:1029A00051FF07F11300CDE90006204678210022EF
:1029B00001230295FDF746FF07F11400CDE900065B
:1029C00020467821002201230295FDF73BFF07F105
:1029D0001500CDE90006204678210022012302954A
:1029E000FDF730FF07F11600CDE9000620467821FB
:1029F000002201230295FDF725FF07F11700CDE91D
:102A0000000620467821002201230295FDF71AFFD7
:102A100007F11800CDE900062046782100220123A5
:102A20000295FDF70FFF07F11900CDE900062046DA
:102A30007821002201230295FDF704FF07F11A0017
:102A4000CDE9000620467821002201230295FDF7FA
:102A5000F9FE03B0F0BD000090B0FEF72DF80024A1
:102A60000120CDE90B44CDE9094406900A904FF4CA
:102A7000E0104FF4803102250F9006A8CDE907142D
:102A8000CDE90D51FEF7B6F920B1EFF3108072B623
:102A9000FEE700BF0F20CDE901054FF48060CDE9CE
:102AA000040401A802210394FEF79CF820B1EFF37F
:102AB000108072B6FEE700BFFFF75EF9FFF7A0F9DE
:102AC000FFF77EFAFFF7BEF9FFF7F8F9FFF7F0FA24
:102AD000FFF798FA1020002100221026FFF7D0FC03
:102AE000202000210122FFF7CBFC30200021022210
:102AF000FFF7C6FC402000210322FFF7C1FC502055
:102B000000210422FFF7BCFC602000210522FFF712
:102B1000B7FC002004210622FFF7B2FC102004219C
:102B20000722FFF7ADFC202004210822FFF7A8FCB4
:102B3000302004210922FFF7A3FC402004210A22AF
:102B4000FFF79EFC502004213A221023FFF7B8FA29
:102B5000002006210B22FFF793FC102006210C22F7
:102B6000FFF78EFC202006210D22FFF789FC302084
:102B700006210E22FFF784FC402006213A22102372
:102B8000FFF79EFA40F2C804C2F20004204600217A
:102B9000FEF73EFE20684FF47A784FF4FA77C0F8DB
:102BA000348000BF012500BF4FF4B4700021FFF74F
:102BB000FBFD6420FDF75CFC20680421476358207E
:102BC0002D2202230096FFF703FD682004212A220C
:102BD0001023FFF775FA4FF47A70FDF749FC20686F
:102BE0000421C0F834805820002202230096FFF709
:102BF000EFFC682004212A221023FFF761FA4FF42A
:102C00007A60FDF735FC482006212A46022300960B
:102C1000FFF7DEFC582006210D22FFF731FC0135BD
:102C2000332DC1D1BEE702E008C8121F08C1002A37
:102C3000FAD170477047002001E001C1121F002A3D
:102C4000FBD17047010200000000000000000102FB
:102C50000304060708090000000001020304000045
:102C6000000000000000002F000000000700070027
:102C700000147F147F1400242A7F2A120062640843
:102C800013230036495522500000050300000000C0
:102C90001C224100000041221C000014083E0814C0
:102CA0000008083E0808000000A0600000080808AE
:102CB0000808000060600000002010080402003EC8
:102CC0005149453E0000427F400000426151494663
:102CD000002141454B31001814127F100027454553
:102CE0004539003C4A494930000171090503003665
:102CF0004949493600064949291E00003636000078
:102D0000000056360000000814224100001414147C
:102D10001414000041221408000201510906003277
:102D20004959513E007C1211127C007F49494936B5
:102D3000003E41414122007F4141221C007F494920
:102D40004941007F09090901003E4149497A007F54
:102D50000808087F0000417F4100002040413F01FA
:102D6000007F08142241007F40404040007F020C59
:102D7000027F007F0408107F003E4141413E007FFA
:102D800009090906003E4151215E007F09192946C3
:102D90000046494949310001017F0101003F40409F
:102DA000403F001F2040201F003F4038403F00634D
:102DB000140814630007087008070061514945436F
:102DC00000007F41410000552A552A55000041412D
:102DD0007F00000402010204004040404040000027
:102DE00001020400002054545478007F48444438C1
:102DF00000384444442000384444487F0038545448
:102E0000541800087E0901020018A4A4A47C007FC5
:102E1000080404780000447D4000004080847D0068
:102E2000007F102844000000417F4000007C04180F
:102E30000478007C0804047800384444443800FCDA
:102E4000242424180018242418FC007C08040408F6
:102E500000485454542000043F444020003C40406B
:102E6000207C001C2040201C003C4030403C0044A2
:102E700028102844001CA0A0A07C004464544C44AA
:102E800014141414141400000000000000000000CA
:102E9000000000000000000000F80000000000003A
:102EA00000333000000000100C06100C060000007B
:102EB00000000000000040C07840C0784000043F9F
:102EC00004043F040400007088FC0830000000186F
:102ED00020FF211E0000F008F000E0180000002193
:102EE0001C031E211E0000F00888700000001E2137
:102EF00023241927211010160E00000000000000E6
:102F0000000000000000000000E0180402000000C3
:102F100000071820400000020418E00000000040F4
:102F2000201807000000404080F08040400002026E
:102F3000010F01020200000000F00000000001018A
:102F4000011F01010100000000000000000080B02E
:102F50007000000000000000000000000000000100
:102F6000010101010101000000000000000000302B
:102F700030000000000000000000806018040060C5
:102F800018060100000000E010080810E000000F23
:102F9000102020100F00001010F80000000000208A
:102FA000203F2020000000700808088870000030D2
:102FB000282422213000003008888848300000187A
:102FC000202020110E000000C02010F80000000793
:102FD0000424243F240000F8088888080800001909
:102FE000212020110E0000E0108888180000000F3A
:102FF000112020110E0000380808C8380800000011
:10300000003F000000000070880808887000001C65
:10301000222121221C0000E010080810E00000001E
:10302000312222110F00000000C0C000000000008B
:1030300000303000000000000080000000000000B0
:1030400080600000000000008040201008000001A7
:10305000020408102000404040404040400004046A
:103060000404040404000008102040800000002034
:10307000100804020100007048080808F000000071
:10308000003036010000C030C828E810E000071802
:10309000272423140B000000C038E0000000203C6F
:1030A00023020227382008F8888888700000203F13
:1030B000202020110E00C03008080808380007182A
:1030C00020202010080008F808080810E000203F21
:1030D000202020100F0008F88888E8081000203F02
:1030E00020202320180008F88888E8081000203FD6
:1030F000200003000000C03008080838000007184E
:103100002020221E020008F808000008F808203FCE
:10311000210101213F20000808F8080800000020D4
:10312000203F2020000000000808F8080800C080A8
:1031300080807F00000008F888C028180800203F21
:1031400020012638200008F8080000000000203F79
:1031500020202020300008F8F800F8F80800203F70
:10316000003F003F200008F830C00008F808203F6A
:10317000200007183F00E01008080810E0000F10BA
:10318000202020100F0008F808080808F000203F51
:10319000210101010000E01008080810E0000F18EC
:1031A000242438504F0008F8888888887000203F11
:1031B0002000030C30200070880808083800003810
:1031C000202121221C00180808F808081800000017
:1031D000203F2000000008F808000008F808001F41
:1031E000202020201F000878880000C83808000030
:1031F00007380E010000F80800F80008F800033C4A
:103200000700073C03000818688080681808203011
:103210002C03032C30200838C800C83808000000F0
:10322000203F2000000010080808C8380800203897
:10323000262120201800000000FE020202000000EB
:10324000007F40404000000C30C000000000000043
:1032500000010638C00000020202FE00000000402B
:1032600040407F0000000000040202020400000051
:10327000000000000000000000000000000080804E
:103280008080808080800002020400000000000036
:103290000000000000000000808080800000001915
:1032A000242222223F2008F8008080000000003FF6
:1032B000112020110E000000008080800000000E10
:1032C000112020201100000000808088F800000EEE
:1032D000112020103F200000808080800000001F0F
:1032E000222222221300008080F088888818002083
:1032F000203F202000000000808080808000006B44
:1033000094949493600008F8008080800000203F2F
:10331000210000203F20008098980000000000203D
:10332000203F20200000000000809898000000C08E
:103330008080807F000008F8000080808000203FAF
:1033400024022D302000000808F8000000000020B2
:10335000203F202000008080808080808000203FEF
:1033600020003F20003F8080008080800000203FC0
:10337000210000203F200000808080800000001F8E
:10338000202020201F00808000808000000080FF1F
:10339000A12020110E000000008080808000000E1F
:1033A000112020A0FF80808080008080800020206D
:1033B0003F212000010000008080808080000033D9
:1033C000242424241900008080E080800000000074
:1033D000001F202000008080000000808000001F6F
:1033E000202020103F20808080000080808000010D
:1033F0000E300806010080800080008080800F3041
:103400000C030C300F0000808000808080000020C2
:10341000312E0E31200080808000008080808081ED
:103420008E7018060100008080808080800000215E
:10343000302C2221300000000000807C02020000BD
:103440000000003F40400002027C8000000000407D
:10345000403F0000000000000000FF0000000000EE
:103460000000FF000000109453321E325210007E04
:103470004242427E00000000000000000000000008
:10348000000000000000000000000000000000003C
:10349000000000000000000000000000000000002C
:1034A000000000000000000000000000000000001C
:1034B000000000000000000000000000000000000C
:1034C00000000000000000000000000000000000FC
:1034D00000000000000000000000000000000000EC
:1034E00000000000000000000000000000000000DC
:1034F00000000000000000000000000000000000CC
:1035000000000000000000000000000000000000BB
:1035100000000000000000000000000000000000AB
:10352000000000000000000000000000000000009B
:10353000000000000000000000000000000000008B
:10354000000000000000000000000000000000007B
:10355000000000000000000000000000000000006B
:103560000000000000000000FF494949494949495D
:10357000FF0000000000000000000000000000004C
:10358000000000000000000000000000000000003B
:10359000000000000000000000000000000000002B
:1035A000000000000000000000000000000000001B
:1035B000000000000000000000000000000000000B
:1035C00000000000000000000000000000000000FB
:1035D00000000000000000000000000000000000EB
:1035E00000000000000000000000000000000000DB
:1035F00000000000000000000000000000000000CB
:1036000000000000000000000000000000000000BA
:1036100000000000000000000000000000000000AA
:10362000000000000000000000000000000000009A
:10363000000000000000000000000000000000008A
:10364000000000000000000000000000000000007A
:10365000000000000000000000000000000000006A
:103660000000000008CC4A49484ACC18007F8888EE
:103670008482E00000000000000000000000000064
:10368000000000000000000000000000000000003A
:10369000000000000000000000000000000000002A
:1036A000000000000000000000000000000000001A
:1036B000000000000000000000000000000000000A
:1036C00000000000000000000000000000000000FA
:1036D00000000000000000000000000000000000EA
:1036E00000000000000000000000000000000000DA
:1036F00000000000000000000000000000000000CA
:1037000000000000000000000000000000000000B9
:1037100000000000000000000000000000000000A9
:103720000000000000000000000000000000000099
:103730000000000000000000000000000000000089
:103740000000000000000000000000000000000079
:103750000000000000000000000000000000000069
:1037600000000000FF121252927F00007E888884C1
:1037700082E00000000000000000000000000000E7
:103780000000000000000000000000000000000039
:103790000000000000000000000000000000000029
:1037A0000000000000000000000000000000000019
:1037B0000000000000000000000000000000000009
:1037C00000000000000000000000000000000000F9
:1037D00000000000000000000000000000000000E9
:1037E00000000000000000000000000000000000D9
:1037F00000000000000000000000000000000000C9
:1038000000000000000000000000000000000000B8
:1038100000000000000000000000000000000000A8
:103820000000000000000000000000000000000098
:103830000000000000000000000000000000000088
:103840000000000000000000000000000000000078
:103850000000000000000000000000000000000068
:1038600000008080FC96E584FC0038C8090E08A89A
:103870001800000000000000000000000000000030
:103880000000000000000000000000000000000038
:103890000000000000000000000000000000000028
:1038A0000000000000000000000000000000000018
:1038B0000000000000000000000000000000000008
:1038C00000000000000000000000000000000000F8
:1038D00000000000000000000000000000000000E8
:1038E00000000000000000000000000000000000D8
:1038F00000000000000000000000000000000000C8
:1039000000000000000000000000000000000000B7
:1039100000000000000000000000000000000000A7
:103920000000000000000000000000000000000097
:103930000000000000000000000000000000000087
:103940000000000000000000000000000000000077
:103950000000000000000000000000000000000067
:103960000080601F024C807F00003F44424140784D
:103970000000000000000000000000000000000047
:103980000000000000000000000000000000000037
:103990000000000000000000000000000000000027
:1039A0000000000000000000000000000000000017
:1039B0000000000000000000000000000000000007
:1039C00000000000000000000000000000000000F7
:1039D00000000000000000000000000000000000E7
:1039E00000000000000000000000000000000000D7
:1039F00000000000000000000000000000000000C7
:103A000000000000000000000000000000000000B6
:103A100000000000000000000000000000000000A6
:103A20000000000000000000000000000000000096
:103A30000000000000000000000000000000000086
:103A40000000000000000000000000000000000076
:103A50000000000000000000000000000000000066
:103A60001010D0FF901000FE020202FE00000000C5
:103A70000000000000000000000000000000000046
:103A80000000000000000000000000000000000036
:103A90000000000000000000000000000000000026
:103AA0000000000000000000000000000000000016
:103AB0000000000000000000000000000000000006
:103AC00000000000000000000000000000000000F6
:103AD00000000000000000000000000000000000E6
:103AE00000000000000000000000000000000000D6
:103AF00000000000000000000000000000000000C6
:103B000000000000000000000000000000000000B5
:103B100000000000000000000000000000000000A5
:103B20000000000000000000000000000000000095
:103B30000000000000000000000000000000000085
:103B40000000000000000000000000000000000075
:103B50000000000000000000000000000000000461
:103B60000300FF0083601F0000003F40407800001A
:103B70000000000000000000000000000000000045
:103B80000000000000000000000000000000000035
:103B90000000000000000000000000000000000025
:103BA0000000000000000000000000000000000015
:103BB0000000000000000000000000000000000005
:103BC00000000000000000000000000000000000F5
:103BD00000000000000000000000000000000000E5
:103BE00000000000000000000000000000000000D5
:103BF00000000000000000000000000000000000C5
:103C000000000000000000000000000000000000B4
:103C100000000000000000000000000000000000A4
:103C20000000000000000000000000000000000094
:103C30000000000000000000000000000000000084
:103C40000000000000000000000000000000000074
:103C50000000000000000000000000000000101044
:103C600010FF9020984828090E2848A81800000046
:103C70000000000000000000000000000000000044
:103C80000000000000000000000000000000000034
:103C90000000000000000000000000000000000024
:103CA0000000000000000000000000000000000014
:103CB0000000000000000000000000000000000004
:103CC00000000000000000000000000000000000F4
:103CD00000000000000000000000000000000000E4
:103CE00000000000000000000000000000000000D4
:103CF00000000000000000000000000000000000C4
:103D000000000000000000000000000000000000B3
:103D100000000000000000000000000000000000A3
:103D20000000000000000000000000000000000093
:103D30000000000000000000000000000000000083
:103D40000000000000000000000000000000000073
:103D5000000000000000000000000000000242819E
:103D60007F0040404242427E42424240000000000A
:103D70000000000000000000000000000000000043
:103D80000000000000000000000000000000000033
:103D90000000000000000000000000000000000023
:103DA0000000000000000000000000000000000013
:103DB0000000000000000000000000000000000003
:103DC00000000000000000000000000000000000F3
:103DD00000000000000000000000000000000000E3
:103DE00000000000000000000000000000000000D3
:103DF00000000000000000000000000000000000C3
:103E000000000000000000000000000000000000B2
:103E100000000000000000000000000000000000A2
:103E20000000000000000000000000000000000092
:103E30000000000000000000000000000000000082
:103E40000000000000000000000000000000000072
:103E500000000000000000000000000040504E483C
:103E600048FF48484840F80000FF000000000000FC
:103E70000000000000000000000000000000000042
:103E80000000000000000000000000000000000032
:103E90000000000000000000000000000000000022
:103EA0000000000000000000000000000000000012
:103EB0000000000000000000000000000000000002
:103EC00000000000000000000000000000000000F2
:103ED00000000000000000000000000000000000E2
:103EE00000000000000000000000000000000000D2
:103EF00000000000000000000000000000000000C2
:103F000000000000000000000000000000000000B1
:103F100000000000000000000000000000000000A1
:103F20000000000000000000000000000000000091
:103F30000000000000000000000000000000000081
:103F40000000000000000000000000000000000071
:103F5000000000000000000000000000003E02021F
:103F6000FF12221E000F40807F00000000000000B2
:103F70000000000000000000000000000000000041
:103F80000000000000000000000000000000000031
:103F90000000000000000000000000000000000021
:103FA0000000000000000000000000000000000011
:103FB0000000000000000000000000000000000001
:103FC00000000000000000000000000000000000F1
:103FD00000000000000000000000000000000000E1
:103FE00000000000000000000000000000000000D1
:103FF00000000000000000000000000000000000C1
:1040000000000000000000000000000000000000B0
:1040100000000000000000000000000000000000A0
:104020000000000000000000000000000000000090
:104030000000000000000000000000000000000080
:104040000000000000000000000000000000000070
:104050000000000000000000000000003E222A32A4
:1040600022FE22322A223E00000000000000000052
:104070000000000000000000000000000000000040
:104080000000000000000000000000000000000030
:104090000000000000000000000000000000000020
:1040A0000000000000000000000000000000000010
:1040B0000000000000000000000000000000000000
:1040C00000000000000000000000000000000000F0
:1040D00000000000000000000000000000000000E0
:1040E00000000000000000000000000000000000D0
:1040F00000000000000000000000000000000000C0
:1041000000000000000000000000000000000000AF
:10411000000000000000000000000000000000009F
:10412000000000000000000000000000000000008F
:10413000000000000000000000000000000000007F
:10414000000000000000000000000000000000006F
:104150000000000000000000008868090929C90962
:104160000F29C9090929C808000000000000000043
:10417000000000000000000000000000000000003F
:10418000000000000000000000000000000000002F
:10419000000000000000000000000000000000001F
:1041A000000000000000000000000000000000000F
:1041B00000000000000000000000000000000000FF
:1041C00000000000000000000000000000000000EF
:1041D00000000000000000000000000000000000DF
:1041E00000000000000000000000000000000000CF
:1041F00000000000000000000000000000000000BF
:1042000000000000000000000000000000000000AE
:10421000000000000000000000000000000000009E
:10422000000000000000000000000000000000008E
:10423000000000000000000000000000000000007E
:10424000000000000000000000000000000000006E
:1042500000000000000000002010E824272424E4CF
:1042600024342C20E00000000000000000000000CA
:10427000000000000000000000000000000000003E
:10428000000000000000000000000000000000002E
:10429000000000000000000000000000000000001E
:1042A000000000000000000000000000000000000E
:1042B00000000000000000000000000000000000FE
:1042C00000000000000000000000000000000000EE
:1042D00000000000000000000000000000000000DE
:1042E00000000000000000000000000000000000CE
:1042F00000000000000000000000000000000000BE
:1043000000000000000000000000000000000000AD
:10431000000000000000000000000000000000009D
:10432000000000000000000000000000000000008D
:10433000000000000000000000000000000000007D
:10434000000000000000000000000000000000006D
:104350000000000000000000003F42424242434291
:10436000424242434078000000000000000000008C
:10437000000000000000000000000000000000003D
:10438000000000000000000000000000000000002D
:10439000000000000000000000000000000000001D
:1043A000000000000000000000000000000000000D
:1043B00000000000000000000000000000000000FD
:1043C00000000000000000000000000000000000ED
:1043D00000000000000000000000000000000000DD
:1043E00000000000000000000000000000000000CD
:1043F00000000000000000000000000000000000BD
:1044000000000000000000000000000000000000AC
:10441000000000000000000000000000000000009C
:10442000000000000000000000000000000000008C
:10443000000000000000000000000000000000007C
:10444000000000000000000000000000000000006C
:1044500000000000000000FE0000FF00868A5222DB
:10446000524A8680000000000000000000000000AA
:10447000000000000000000000000000000000003C
:10448000000000000000000000000000000000002C
:10449000000000000000000000000000000000001C
:1044A000000000000000000000000000000000000C
:1044B00000000000000000000000000000000000FC
:1044C00000000000000000000000000000000000EC
:1044D00000000000000000000000000000000000DC
:1044E00000000000000000000000000000000000CC
:1044F00000000000000000000000000000000000BC
:1045000000000000000000000000000000000000AB
:10451000000000000000000000000000000000009B
:10452000000000000000000000000000000000008B
:10453000000000000000000000000000000000007B
:10454000000000000000000000000000000000006B
:104550000000000000404044445564454644645413
:104560004444404000000000000000000000000043
:10457000000000000000000000000000000000003B
:10458000000000000000000000000000000000002B
:10459000000000000000000000000000000000001B
:1045A000000000000000000000000000000000000B
:1045B00000000000000000000000000000000000FB
:1045C00000000000000000000000000000000000EB
:1045D00000000000000000000000000000000000DB
:1045E00000000000000000000000000000000000CB
:1045F00000000000000000000000000000000000BB
:1046000000000000000000000000000000000000AA
:10461000000000000000000000000000000000009A
:10462000000000000000000000000000000000008A
:10463000000000000000000000000000000000007A
:10464000000000000000000000000000000000006A
:1046500000000000000404F49494949F949494F453
:104660000404000000000000000000000000000042
:10467000000000000000000000000000000000003A
:10468000000000000000000000000000000000002A
:10469000000000000000000000000000000000001A
:1046A000000000000000000000000000000000000A
:1046B00000000000000000000000000000000000FA
:1046C00000000000000000000000000000000000EA
:1046D00000000000000000000000000000000000DA
:1046E00000000000000000000000000000000000CA
:1046F00000000000000000000000000000000000BA
:1047000000000000000000000000000000000000A9
:104710000000000000000000000000000000000099
:104720000000000000000000000000000000000089
:104730000000000000000000000000000000000079
:104740000000000000000000000000000000000069
:104750000000004040407F4A4A4A4A4A4A4A7F4055
:1047600040400000000000000000000000000000C9
:104770000000000000000000000000000000000039
:104780000000000000000000000000000000000029
:104790000000000000000000000000000000000019
:1047A0000000000000000000000000000000000009
:1047B00000000000000000000000000000000000F9
:1047C00000000000000000000000000000000000E9
:1047D00000000000000000000000000000000000D9
:1047E00000000000000000000000000000000000C9
:1047F00000000000000000000000000000000000B9
:1048000000000000000000000000000000000000A8
:104810000000000000000000000000000000000098
:104820000000000000000000000000000000000088
:104830000000000000000000000000000000000078
:104840000000000000000000000000000000000068
:104850000000C8B88FE8888800F01010FF1010F032
:104860000000000000000000000000000000000048
:104870000000000000000000000000000000000038
:104880000000000000000000000000000000000028
:104890000000000000000000000000000000000018
:1048A0000000000000000000000000000000000008
:1048B00000000000000000000000000000000000F8
:1048C00000000000000000000000000000000000E8
:1048D00000000000000000000000000000000000D8
:1048E00000000000000000000000000000000000C8
:1048F00000000000000000000000000000000000B8
:1049000000000000000000000000000000000000A7
:104910000000000000000000000000000000000097
:104920000000000000000000000000000000000087
:104930000000000000000000000000000000000077
:104940000000000000000000000000000000000067
:1049500000081808FF040400FF42427F4242FF00A3
:104960000000000000000000000000000000000047
:104970000000000000000000000000000000000037
:104980000000000000000000000000000000000027
:104990000000000000000000000000000000000017
:1049A0000000000000000000000000000000000007
:1049B00000000000000000000000000000000000F7
:1049C00000000000000000000000000000000000E7
:1049D00000000000000000000000000000000000D7
:1049E00000000000000000000000000000000000C7
:1049F00000000000000000000000000000000000B7
:104A000000000000000000000000000000000000A6
:104A10000000000000000000000000000000000096
:104A20000000000000000000000000000000000086
:104A30000000000000000000000000000000000076
:104A40000000000000000000000000000000000066
:104A5000101010FF1090001010FF1010F000000058
:104A60000000000000000000000000000000000046
:104A70000000000000000000000000000000000036
:104A80000000000000000000000000000000000026
:104A90000000000000000000000000000000000016
:104AA0000000000000000000000000000000000006
:104AB00000000000000000000000000000000000F6
:104AC00000000000000000000000000000000000E6
:104AD00000000000000000000000000000000000D6
:104AE00000000000000000000000000000000000C6
:104AF00000000000000000000000000000000000B6
:104B000000000000000000000000000000000000A5
:104B10000000000000000000000000000000000095
:104B20000000000000000000000000000000000085
:104B30000000000000000000000000000000000075
:104B40000000000000000000000000000000000461
:104B500044827F018040211A0718003F40F0000086
:104B60000000000000000000000000000000000045
:104B70000000000000000000000000000000000035
:104B80000000000000000000000000000000000025
:104B90000000000000000000000000000000000015
:104BA0000000000000000000000000000000000005
:104BB00000000000000000000000000000000000F5
:104BC00000000000000000000000000000000000E5
:104BD00000000000000000000000000000000000D5
:104BE00000000000000000000000000000000000C5
:104BF00000000000000000000000000000000000B5
:104C000000000000000000000000000000000000A4
:104C10000000000000000000000000000000000094
:104C20000000000000000000000000000000000084
:104C30000000000000000000000000000000000074
:104C40000000000000000000000000000000001054
:104C500088C4330040424242C24242424000000007
:104C60000000000000000000000000000000000044
:104C70000000000000000000000000000000000034
:104C80000000000000000000000000000000000024
:104C90000000000000000000000000000000000014
:104CA0000000000000000000000000000000000004
:104CB00000000000000000000000000000000000F4
:104CC00000000000000000000000000000000000E4
:104CD00000000000000000000000000000000000D4
:104CE00000000000000000000000000000000000C4
:104CF00000000000000000000000000000000000B4
:104D000000000000000000000000000000000000A3
:104D10000000000000000000000000000000000093
:104D20000000000000000000000000000000000083
:104D30000000000000000000000000000000000073
:104D40000000000000000000000000000002010060
:104D5000FF0000000040807F000000000000000015
:104D60000000000000000000000000000000000043
:104D70000000000000000000000000000000000033
:104D80000000000000000000000000000000000023
:104D90000000000000000000000000000000000013
:104DA0000000000000000000000000000000000003
:104DB00000000000000000000000000000000000F3
:104DC00000000000000000000000000000000000E3
:104DD00000000000000000000000000000000000D3
:104DE00000000000000000000000000000000000C3
:104DF00000000000000000000000000000000000B3
:104E000000000000000000000000000000000000A2
:104E10000000000000000000000000000000000092
:104E20000000000000000000000000000000000082
:104E30000000000000000000000000000000000072
:104E400000000000000000000000000000020C80D4
:104E5000608040300FC808082818000000000000DB
:104E60000000000000000000000000000000000042
:104E70000000000000000000000000000000000032
:104E80000000000000000000000000000000000022
:104E90000000000000000000000000000000000012
:104EA0000000000000000000000000000000000002
:104EB00000000000000000000000000000000000F2
:104EC00000000000000000000000000000000000E2
:104ED00000000000000000000000000000000000D2
:104EE00000000000000000000000000000000000C2
:104EF00000000000000000000000000000000000B2
:104F000000000000000000000000000000000000A1
:104F10000000000000000000000000000000000091
:104F20000000000000000000000000000000000081
:104F30000000000000000000000000000000000071
:104F4000000000000000000000000002027E01805E
:104F500040201806010618204080000000000000D4
:104F60000000000000000000000000000000000041
:104F70000000000000000000000000000000000031
:104F80000000000000000000000000000000000021
:104F90000000000000000000000000000000000011
:104FA0000000000000000000000000000000000001
:104FB00000000000000000000000000000000000F1
:104FC00000000000000000000000000000000000E1
:104FD00000000000000000000000000000000000D1
:104FE00000000000000000000000000000000000C1
:104FF00000000000000000000000000000000000B1
:1050000000000000000000000000000000000000A0
:105010000000000000000000000000000000000090
:105020000000000000000000000000000000000080
:105030000000000000000000000000000000000070
:105040000000000000000000000090523410FF102B
:10505000345280708F0808F808000000000000003B
:105060000000000000000000000000000000000040
:105070000000000000000000000000000000000030
:105080000000000000000000000000000000000020
:105090000000000000000000000000000000000010
:1050A0000000000000000000000000000000000000
:1050B00000000000000000000000000000000000F0
:1050C00000000000000000000000000000000000E0
:1050D00000000000000000000000000000000000D0
:1050E00000000000000000000000000000000000C0
:1050F00000000000000000000000000000000000B0
:10510000000000000000000000000000000000009F
:10511000000000000000000000000000000000008F
:10512000000000000000000000000000000000007F
:10513000000000000000000000000000000000006F
:10514000000000000000000000829A566322528E88
:10515000008040330C33408000000000000000005D
:10516000000000000000000000000000000000003F
:10517000000000000000000000000000000000002F
:10518000000000000000000000000000000000001F
:10519000000000000000000000000000000000000F
:1051A00000000000000000000000000000000000FF
:1051B00000000000000000000000000000000000EF
:1051C00000000000000000000000000000000000DF
:1051D00000000000000000000000000000000000CF
:1051E00000000000000000000000000000000000BF
:1051F00000000000000000000000000000000000AF
:10520000000000000000000000000000000000009E
:10521000000000000000000000000000000000008E
:10522000000000000000000000000000000000007E
:10523000000000000000000000000000000000006E
:105240000000000000000000020304050607080932
:105250000A0B0C0D0E0F10107852000800000020F1
:1052600028000000262C0008A0520008280000207A
:1052700030050000362C000801000000100000007E
:10528000AE001040B081FFA1A6A83FC8D300D580D2
:10529000D805D9F1DA12D8308D14AF000024F4000B
:04000005080000ED02
:00000001FF
